:100000000C9449000C945E000C945E000C945E000D
:100010000C945E000C945E000C945E000C945E00E8
:100020000C945E000C945E000C945E000C945E00D8
:100030000C945E000C945E000C945E000C945E00C8
:100040000C945E000C945E000C945E000C945E00B8
:100050000C945E00AB02B902C702D502E302F102C2
:10006000FF020D031B0329033703450353036103F9
:100070006F0383039B03B803D803F8031804350404
:1000800049045D04710485049904AC04C004D404DB
:10009000E80411241FBECFE5D8E0DEBFCDBF11E0DC
:1000A000A0E6B0E0E8E3F0E102C005900D92A036D2
:1000B000B107D9F70E9460000C941A080C94000054
:1000C000CF93DF93CDB7DEB7C75CD1090FB6F894F5
:1000D000DEBF0FBECDBF0E94FC0440E060E080E0C8
:1000E0000E946F0640E061E080E00E946F0640E001
:1000F00062E080E00E946F0640E063E080E00E94E2
:100100006F0640E060E083E00E946F0640E060E040
:1001100080E00E94E10640E061E080E00E94E106AC
:1001200040E062E080E00E94E10640E063E080E0C1
:100130000E94E10640E060E083E00E94E1060E9448
:10014000EB0585E80E94480680E690E00E9455068F
:1001500081E00E94480680E80E94480688E690E018
:100160000E94550681E00E94480680E80E944806E9
:1001700089E790E00E94550681E00E94480684E8E5
:100180000E9448068AE890E00E94550681E00E949D
:10019000480680E80E94480683E990E00E945506E0
:1001A00081E00E944806212CB12C312C412C512C8D
:1001B000612C712C812C912CA12CCA53DF4F1882F9
:1001C000C65CD040C953DF4F1882C75CD040CB53C8
:1001D000DF4F1882C55CD040CC53DF4F1882C45C1F
:1001E000D040CD53DF4F1882C35CD040C12CE12CEE
:1001F00060E070E080E090E00E945307182F61E01B
:1002000070E080E090E00E945307082F62E070E009
:1002100080E090E00E945307F82E63E070E080E0F9
:1002200090E00E945307D82E60E070E083E090E0F9
:100230000E94530711110BC0011109C0F11007C032
:10024000D11005C0811103C0C11001C0E12C1130D3
:1002500051F4011108C0F11006C0D11004C0811181
:1002600002C0EE24E39411110BC0013049F4F110E7
:1002700007C0D11005C0811103C06894EE24E1F8D5
:1002800011110DC001110BC091E0F91208C0D1107D
:1002900006C0811104C00F2EF3E0EF2EF02D1111D6
:1002A0000CC001110AC0F11008C091E0D91205C0BC
:1002B000811103C06894EE24E2F811110CC0011101
:1002C0000AC0F11008C0D11006C0813021F40F2EF1
:1002D000F5E0EF2EF02D113061F4013051F4F11002
:1002E00008C0D11006C0811104C00F2EF6E0EF2E19
:1002F000F02D113069F401110BC091E0F91208C022
:10030000D11006C0811104C00F2EF7E0EF2EF02DA2
:10031000113061F401110AC0F11008C091E0D91246
:1003200005C0811103C06894EE24E3F8113061F434
:1003300001110AC0F11008C0D11006C0813021F4AB
:100340000F2EF9E0EF2EF02D11110DC0013059F4F0
:1003500091E0F91208C0D11006C0811104C00F2E1F
:10036000FAE0EF2EF02D11110DC0013059F4F1100B
:1003700009C091E0D91206C0811104C00F2EFBE024
:10038000EF2EF02D11110CC0013051F4F11008C006
:10039000D11006C0813021F40F2EFCE0EF2EF02D9D
:1003A00011110DC001110BC091E0F91208C0D91252
:1003B00006C0813021F40F2EFDE0EF2EF02D11113B
:1003C0000DC0013059F491E0F91208C0D91206C0ED
:1003D000813021F40F2EFEE0EF2EF02D113069F464
:1003E000013059F491E0F91208C0D91206C08130E9
:1003F00021F40F2EFFE0EF2EF02D8BE0E3EAF0E08A
:10040000DE01AF58BF4F01900D928A95E1F789E563
:100410009FE4C154DF4F99838883CF5BD04085E54B
:1004200090E0CF53DF4F99838883C15CD04081E156
:10043000EEEAF0E0DE01949601900D928A95E1F7E4
:1004400081E1EFEBF0E0DE01539601900D928A9589
:10045000E1F780E1E0EDF0E0DE01D59601900D924C
:100460008A95E1F78AE0E0EEF0E0DE01A656BF4FA4
:1004700001900D928A95E1F78AE0EAEEF0E0DE0164
:10048000A057BF4F01900D928A95E1F789E0E4EF04
:10049000F0E0DE01AA54BF4F01900D928A95E1F77A
:1004A00089E0EDEFF0E0DE01A355BF4F01900D9222
:1004B0008A95E1F78FE0E6E0F1E0DE01AC5ABF4F4C
:1004C00001900D928A95E1F78EE0E5E1F1E0DE0121
:1004D000AD59BF4F01900D928A95E1F781E1E3E2BA
:1004E000F1E0DE01129601900D928A95E1F78FE01E
:1004F000E4E3F1E0DE01AB5BBF4F01900D928A9522
:10050000E1F789E0E3E4F1E0DE01AC55BF4F019093
:100510000D928A95E1F78AE0ECE4F1E0DE01AA575A
:10052000BF4F01900D928A95E1F78AE0E6E5F1E090
:10053000DE01A458BF4F01900D928A95E1F78E2DF0
:1005400090E0FC013197EF30F10508F0D5C0E65D91
:10055000FF4F0C941408BE016F5F7F4F80E090E066
:100560000E94FF0481EE94E00197F1F700C00000C3
:10057000C3C0BE016F5F7F4F81E090E00E94FF0427
:1005800081EE94E00197F1F700C00000B5C0BE0114
:100590006F5F7F4F82E090E00E94FF0481EE94E065
:1005A0000197F1F700C00000A7C0BE016F5F7F4F49
:1005B00083E090E00E94FF0481EE94E00197F1F760
:1005C00000C0000099C0BE016F5F7F4F84E090E0E3
:1005D0000E94FF0481EE94E00197F1F700C0000053
:1005E0008BC0BE016F5F7F4F85E090E00E94FF04EB
:1005F00081EE94E00197F1F700C000007DC0BE01DC
:100600006F5F7F4F86E090E00E94FF0481EE94E0F0
:100610000197F1F700C000006FC0BE016F5F7F4F10
:1006200087E090E00E94FF0481EE94E00197F1F7EB
:1006300000C0000061C0BE016F5F7F4F88E090E0A6
:100640000E94FF0481EE94E00197F1F700C00000E2
:1006500053C0BE016F5F7F4F89E090E00E94FF04AE
:1006600081EE94E00197F1F700C0000045C0BE01A3
:100670006F5F7F4F8AE090E00E94FF0481EE94E07C
:100680000197F1F700C0000037C0BE016F5F7F4FD8
:100690008BE090E00E94FF0481EE94E00197F1F777
:1006A00000C0000029C0BE016F5F7F4F8CE090E06A
:1006B0000E94FF0481EE94E00197F1F700C0000072
:1006C0001BC0BE016F5F7F4F8DE090E00E94FF0472
:1006D00081EE94E00197F1F700C000000DC0BE016B
:1006E0006F5F7F4F8EE090E00E94FF0481EE94E008
:1006F0000197F1F700C000008E2D90E0FC01E75C4F
:10070000FF4F0C941408C11073CD80E80E94480676
:1007100081E00E94480680E80E944806CE018F587A
:100720009F4F0E945506CD53DF4F1882C35CD040C7
:10073000CC24C3945DCDCD53DF4F9881C35CD040B2
:10074000911156CD80E80E94480681E00E9448063B
:1007500080E80E944806CE0181549F4F0E945506B2
:1007600081E0CD53DF4F8883C35CD040C12C40CDA6
:10077000CC53DF4F9881C45CD040911139CD80E8D3
:100780000E94480681E00E94480680E80E944806D0
:10079000CE0184960E945506CB53DF4F1882C55C6C
:1007A000D04081E0CC53DF4F8883C45CD04020CD63
:1007B000CB53DF4F9881C55CD040911119CD80E8B3
:1007C0000E94480681E00E94480680E80E94480690
:1007D000CE0143960E94550681E0CB53DF4F8883BC
:1007E000C55CD040CC53DF4F1882C45CD04000CDF4
:1007F000C953DF4F9881C75CD0409111F9CC80E894
:100800000E94480681E00E94480680E80E9448064F
:10081000CE01C5960E945506CA53DF4F1882C65CAA
:10082000D04081E0C953DF4F8883C75CD040E0CC23
:10083000CA53DF4F9881C65CD0409111D9CC80E873
:100840000E94480681E00E94480680E80E9448060F
:10085000CE0186569F4F0E945506A12C81E0CA53B7
:10086000DF4F8883C65CD040C3CCA110C1CC80E8E8
:100870000E94480681E00E94480680E80E944806DF
:10088000CE0180579F4F0E945506912CAA24A39415
:10089000AFCC9110ADCC80E80E94480681E00E9468
:1008A000480680E80E944806CE018A549F4F0E9465
:1008B0005506812C992493949BCC811099CC80E887
:1008C0000E94480681E00E94480680E80E9448068F
:1008D000CE0183559F4F0E945506712C8824839426
:1008E00087CC711085CC80E80E94480681E00E9488
:1008F000480680E80E944806CE018C5A9F4F0E940D
:100900005506612C7724739473CC611071CC80E808
:100910000E94480681E00E94480680E80E9448063E
:10092000CE018D599F4F0E945506512C6624639429
:100930005FCC51105DCC80E80E94480681E00E94A7
:10094000480680E80E944806CE0102960E9455069D
:10095000412C552453944CCC41104ACC80E80E9441
:10096000480681E00E94480680E80E944806CE01C1
:100970008B5B9F4F0E945506312C4424439438CC06
:10098000311036CC80E80E94480681E00E9448067B
:1009900080E80E944806CE018C559F4F0E94550664
:1009A000B12C3324339424CCB11022CC80E80E94A3
:1009B000480681E00E94480680E80E944806CE0171
:1009C0008A579F4F0E945506212CBB24B39410CC0C
:1009D00021100ECC80E80E94480681E00E94480663
:1009E00080E80E944806CE0184589F4F0E94550619
:1009F00022242394B12CFCCB0E9481070895FF92FE
:100A00000F931F93CF93DF93F82EEB01292F30E044
:100A100023703327220F331F206A8901169507950B
:100A20000E9496078130F1F460E0802F0E94C00799
:100A30008130D1F48F2D0E94E2078130B9F40E94F9
:100A4000A7078130A9F461E0802F0E94C0078130A0
:100A500089F4CE010E94F707813071F40E94B80733
:100A600081E00BC080E009C080E007C080E005C0E5
:100A700080E003C080E001C080E0DF91CF911F9152
:100A80000F91FF900895CF93C82F40E063E081E07D
:100A90000E94E10640E062E081E00E94E106C83287
:100AA00099F54C2F441F4427441F60E081E00E94C9
:100AB000E106C6FB442740F966E080E00E94E106BB
:100AC000C5FB442740F965E080E00E94E106C4FBD5
:100AD000442740F964E080E00E94E10641E063E0E1
:100AE00081E00E94E10681EE94E00197F1F700C0F9
:100AF000000040E063E081E00E94E10681EE94E0C6
:100B00000197F1F700C000004C2F441F4427441FF9
:100B100060E081E00E94E106C6FB442740F966E000
:100B200080E00E94E106C5FB442740F965E080E0D3
:100B30000E94E106C4FB442740F964E080E00E9483
:100B4000E10641E063E081E00E94E10681EE94E08D
:100B50000197F1F700C0000040E063E081E00E94EF
:100B6000E10681EE94E00197F1F700C00000C3FBBD
:100B7000442740F960E081E00E94E106C2FB44277F
:100B800040F966E080E00E94E106C1FB442740F99D
:100B900065E080E00E94E1064C2F417064E080E057
:100BA0000E94E10641E063E081E00E94E10681EEFF
:100BB00094E00197F1F700C0000040E063E081E0BD
:100BC0000E94E10681EE94E00197F1F700C0000079
:100BD00080E0CF91089541E061E081E00E946F06DE
:100BE00041E062E081E00E946F0641E063E081E065
:100BF0000E946F0641E060E081E00E946F0641E0E4
:100C000066E080E00E946F0641E065E080E00E94BF
:100C10006F0641E064E080E00E946F068DE292E2A0
:100C20000197F1F700C0000040E061E081E00E9420
:100C3000E10688E20E94430581EE94E00197F1F716
:100C400000C0000040E061E081E00E94E1068FE02A
:100C50000E94430581EE94E00197F1F700C0000087
:100C600040E061E081E00E94E10681E00E944305EE
:100C700083EF91E00197F1F700C0000040E061E0F0
:100C800081E00E94E10686E00E94430580E008952D
:100C9000CF93C82F40E061E081E00E94E1068C2FF5
:100CA0000E94430580E0CF9108950F931F93CF9347
:100CB000DF93EC010CC041E061E081E00E94E106BD
:100CC0008E010F5F1F4F88810E944305E8018881D4
:100CD0008111F1CFDF91CF911F910F910895843051
:100CE00008F067C0683008F066C0423008F065C0A0
:100CF0008130E9F030F0823081F1833009F443C073
:100D00005EC081E090E0062E02C0880F991F0A9411
:100D1000E2F780952AB32823842F90E002C0880F41
:100D2000991F6A95E2F7822B8ABB81E0089521E042
:100D300030E0062E02C0220F331F0A94E2F72095FE
:100D400087B32823842F90E002C0880F991F6A95EB
:100D5000E2F7822B87BB81E0089521E030E0062E88
:100D600002C0220F331F0A94E2F7209584B3282390
:100D7000842F90E002C0880F991F6A95E2F7822BBA
:100D800084BB81E0089521E030E0062E02C0220FEE
:100D9000331F0A94E2F7209581B32823842F90E033
:100DA00002C0880F991F6A95E2F7822B81BB81E010
:100DB000089583E0089583E0089583E0089581E035
:100DC0000895843008F067C0683008F066C042308B
:100DD00008F065C08130E9F030F0823081F1833075
:100DE00009F443C05EC081E090E0062E02C0880F87
:100DF000991F0A94E2F780952BB32823842F90E063
:100E000002C0880F991F6A95E2F7822B8BBB81E0A5
:100E1000089521E030E0062E02C0220F331F0A940D
:100E2000E2F7209588B32823842F90E002C0880F32
:100E3000991F6A95E2F7822B88BB81E0089521E033
:100E400030E0062E02C0220F331F0A94E2F72095ED
:100E500085B32823842F90E002C0880F991F6A95DC
:100E6000E2F7822B85BB81E0089521E030E0062E79
:100E700002C0220F331F0A94E2F7209582B3282381
:100E8000842F90E002C0880F991F6A95E2F7822BA9
:100E900082BB81E0089583E0089583E0089583E0B4
:100EA000089581E00895813079F028F08230A9F02A
:100EB0008330E1F024C089B390E002C09595879516
:100EC0006A95E2F78170089586B390E002C0959527
:100ED00087956A95E2F78170089583B390E002C028
:100EE000959587956A95E2F78170089580B390E0B3
:100EF00002C0959587956A95E2F78170089580E024
:100F0000089588E480B981B18C7F81B982B18E7FE8
:100F100082B98AE082B986B7806486BF86B7806866
:100F200086BF86B7846086BF80E0089586B78062FA
:100F300086BF86B7806886BF06B607FEFDCF81B143
:100F4000887F883011F080E0089581E0089586B7A9
:100F5000806286BF86B7806886BF06B607FEFDCF73
:100F600081B1887F803111F080E0089581E008959B
:100F700086B7806186BF86B7806886BF80E00895A7
:100F800090E0880F991F862B83B986B78F7D86BF27
:100F900086B7806886BF06B607FEFDCF81B1887F21
:100FA000883111F4662341F081B1887F803431F4B7
:100FB000613031F080E0089581E0089580E0089587
:100FC00081E0089583B986B7806886BF06B607FEBC
:100FD000FDCF81B1887F883231F081B1887F883B35
:100FE00021F080E0089581E0089581E00895FC01FA
:100FF00096B7906896BF06B607FEFDCF91B1987F71
:10100000903521F091B1987F983521F483B1808398
:1010100081E0089591B1987F903821F483B1808365
:1010200081E0089580E00895EE0FFF1F0590F49190
:08103000E02D0994F894FFCFB4
:1010380057454C434F4D450020544F204F555220A3
:1010480050524F4A454354200020474C4F564520A4
:10105800464F52204445414620004F5552205445A2
:10106800414D005A494144204F4D4152204D454E73
:101078004E410049204C4F564520594F5500524586
:10108800414C4C5920494C4F564520594F55004921
:10109800274D205741544348494E4720594F550042
:1010A8005448495320495320414D415A494E47001D
:1010B8004D59204D4F54484552004D5920464154F2
:1010C8004845520049274D2046494E45004E494360
:1010D80045204341540049274D20494E5445524527
:1010E8005354454400574F4E44455246554C2044AE
:1010F8004159004E49434520544F204D4545542001
:10110800594F5500455843454C4C454E5420574F70
:10111800524B00474F4F44204A4F42005448414EDB
:101128004B20594F550056455259204D55434800BC
:00000001FF
